:020000040800F2
:1000000000000220C9020008CF020008D302000845
:1000100045030008490300089103000800000000A0
:10002000000000000000000000000000D9030008EC
:10003000DD03000800000000E10300083923000888
:10004000F5030008F5030008F5030008F5030008B0
:10005000F5030008F5030008F5030008F5030008A0
:10006000F5030008F5030008F5030008F503000890
:10007000F5030008F5030008F5030008F503000880
:10008000F5030008F5030008F50300080000000070
:10009000000000000000000000000000F503000860
:1000A000F5030008F5030008F5030008F503000850
:1000B000F5030008F5030008F5030008F503000840
:1000C000F5030008F5030008F5030008F503000830
:1000D000F5030008F5030008F50300080000000020
:1000E000F5030008F5030008F50300080000000010
:1000F000000000000000000000000000F503000800
:1001000000000000F5030008F5030008F5030008EF
:1001100000000000000000000000000000000000DF
:10012000F5030008F5030008F5030008F5030008CF
:10013000F5030008000000000000000000000000BF
:10014000000000000000000000000000F5030008AF
:10015000F5030008F5030008F5030008F50300089F
:10016000F5030008F503000800000000000000008F
:10017000000000000000000000000000000000007F
:1001800000000000F503000800000000000000006F
:10019000F5030008F503000800B583B001F0C6FFC1
:1001A000384B394A1360394A1360394900E0214617
:1001B000384B99420BD20A684B6801F10C048868ED
:1001C0009842F4D91168196004330432F8E72E4BD1
:1001D0001A68314B9A4200D0FEE72C4B1A682F4B1D
:1001E0009A42F9D1274B2E4A13602E4A13602E4BA8
:1001F00005E00020106004329342FAD80B462B4AE7
:10020000934204D2194651F8082B5B68F4E7244B5B
:100210001B6813B9234B1B6803B1FEE702F0E6F835
:10022000694601A801F014FF214C224BE41AA410E6
:100230000025AC4214DC204C204BE41AA41000250D
:10024000AC4213DC0099019802F032FD05461C4CCB
:100250001C4BE41AA410002C0EDC284601F0CBFE47
:10026000144B53F8253098470135E2E7134B53F808
:10027000253098470135E3E7013C124B53F8243011
:100280009847E8E7BABADECA0000002074000020F0
:10029000F803000810040008785634123254769897
:1002A000780000204C0300201004000820040008FF
:1002B000200400082004000824040008200400088A
:1002C000280400082404000808B5FFF765FF00BEF5
:1002D000FEE71EF0040F0CBFEFF30880EFF3098078
:1002E0007146414A10472DE9F04182B004468846E4
:1002F000124B5E6B9F6B9D6A1B6B13F0020F03D05A
:100300000E4BDB6A002B0CDB0D4801F0B3FECDF881
:1003100000803B4632462946204601F013FF00BECE
:10032000FEE74BF6AB6101F087FF0028ECD0034BF2
:100330004FF00042DA6202B0BDE8F08100ED00E06B
:100340001439000800BEFEE71EF0040F0CBFEFF3E7
:100350000880EFF309807146244A10472DE9F041E7
:1003600082B004468846084B5E6B9F6B9D6A0748C7
:1003700001F080FECDF800803B46324629462046FB
:1003800001F0E0FE00BEFEE700ED00E024390008C9
:100390001EF0040F0CBFEFF30880EFF309807146E5
:1003A000134A10472DE9F04182B004468846084BB5
:1003B0005E6B9F6B9D6A074801F05CFECDF8008084
:1003C0003B4632462946204601F0BCFE00BEFEE711
:1003D00000ED00E03039000800BEFEE700BEFEE799
:1003E00000BEFEE770470000E70200085D0300085A
:0803F000A503000800BEFEE7B2
:1003F800DC3B00080000002078000020DC3B0008FF
:1004080000000010000000107800002050030020B9
:100418000000001000000010812D00088F2D00083A
:1004300010B50446074B1868074BA3FB0030800932
:1004400000F0A6F8002221464FF0FF3000F05AF8E5
:10045000002010BD0C000020D34D621008B50B4BDE
:100460001A6842F400721A601A6842F480621A60D4
:100470001A6842F480721A60032000F025F80F20F9
:10048000FFF7D6FF02F08AFC002008BD003C0240C6
:10049000024A136801331360704700BF4403002011
:1004A000014B1868704700BF4403002010B582B0AC
:1004B0000190FFF7F5FF0446FFF7F2FF001B019BD9
:1004C0009842F9D302B010BD10B50446C31E042BE8
:1004D0000FD80A4AD36823F4E0631B041B0C2402E0
:1004E00004F4E064234343F0BF6343F40033D36078
:1004F00010BDA421024801F0B3FDEAE700ED00E0E1
:10050000B436000870B505460C4616460F2A25D8A5
:100510000F2C28D81B4BDB68C3F30223C3F107025F
:10052000042A28BF0422191D062921D9033B4FF0B4
:10053000FF3101FA02F224EA02049C4001FA03F3BB
:1005400026EA03063443002D14DB2401E4B205F14E
:10055000604505F5614585F8004370BDBC210A483A
:1005600001F07EFDD4E7BD21074801F079FDD1E718
:100570000023DCE705F00F052401E4B2034B5C55D2
:10058000EBE700BF00ED00E0B436000814ED00E03A
:100590000138B0F1807F0AD2064B5860064AF0213C
:1005A00082F823100020986007221A60704701200B
:1005B000704700BF10E000E000ED00E010B5044619
:1005C000042800D038B9042C0BD0094A136823F052
:1005D0000403136010BD40F2B311064801F040FD62
:1005E000F1E7034A136843F004031360F2E700BF26
:1005F00010E000E0B43600082DE9F04782B08046F4
:100600000E46A24B984217D003F58063984213D050
:1006100003F5806398420FD003F5806398420BD0B6
:1006200003F58063984207D003F54063984203D0F6
:10063000C521974801F014FD338833B37368012B4B
:100640001ED9112B1CD0022B1AD0122B18D0914A74
:10065000934215D002F58012934211D002F5801218
:1006600093420DD0A2F5F812934209D002F5801200
:10067000934205D002F58012934201D0032B09D199
:10068000B368022B0BD800244AE0C621804801F051
:10069000E7FCD3E7C7217E4801F0E2FCF0E7C82180
:1006A0007B4801F0DDFCEEE7EC21794801F0D8FC55
:1006B00090E0042300E000238B400343023276499C
:1006C00041F82230754B1A68FB4303EA0201706857
:1006D00010F4803F01D047EA0201704A116052686D
:1006E00003EA0201706810F4003F01D047EA0201FA
:1006F0006A4A5160926803EA0201706810F4801F30
:1007000001D047EA0201654A9160D26813407168DE
:1007100011F4001F01D047EA0203604AD36001349C
:100720000F2C00F2B0800125A54037682F40BD4254
:10073000F5D17368022B01D0122B2BD13369CBB1C9
:10074000092B17D0012B15D0022B13D0042B11D05D
:10075000052B0FD0062B0DD0072B0BD0082B09D063
:100760000A2B07D00C2B05D00F2B03D0D9214848DA
:1007700001F076FCE208083258F8220004F0070382
:1007800099000F238B4020EA030033698B40034319
:1007900048F82230D8F800204FEA440A4FF0030905
:1007A00009FA0AF96FEA090909EA0202736803F013
:1007B000030303FA0AF31343C8F8003073685A1EA0
:1007C000012A03D9112B01D0122B18D1F368032B66
:1007D0003FF66AAFD8F8082009EA0202F36803FA84
:1007E0000AF31343C8F80830D8F8042022EA0502B7
:1007F0007368C3F30015A5401543C8F80450D8F832
:100800000C3009EA0309B36803FA0AF343EA09035F
:10081000C8F80C30736813F0805F80D00023019318
:100820001F4B5A6C42F480425A645B6C03F4804361
:100830000193019BA208911C174B53F8210004F06F
:10084000030399000F238B4020EA03000F4B9845C8
:100850003FF431AF03F5806398450ED003F5806314
:1008600098450CD003F5806398450AD003F5806362
:1008700098453FF41EAF05231EE701231CE7022322
:100880001AE7032318E702B0BDE8F0870000024032
:10089000E83600080000111000380140003C01401B
:1008A0000038024070B5064615460C4629B1012DA8
:1008B00009D875B92404B46170BD40F2B11106487D
:1008C00001F0CEFBF3E74FF4D971034801F0C8FB08
:1008D000EFE7B461F0E700BFE836000803685A6943
:1008E00012F4806F0DD06FF480625A6104230364A8
:1008F00000230363202280F83D2080F83C30012053
:10090000704700207047F8B506460C4617461D464E
:100910001CE02DB1FFF7C4FD069BC01AA84215D9F3
:1009200000233363202286F83D2086F83C300320E4
:100930001AE033685B6924EA03039BB2B3FA83F3DA
:100940005B099F420FD1B5F1FF3FE2D1C4F30743EA
:10095000012BEED033689B6924EA03039BB2B3FA00
:1009600083F35B09EDE70020F8BDF8B504460D46BA
:1009700016461F4632E01A6842F400721A60236875
:100980006FF480625A6104232364002323632022CE
:1009900084F83D2084F83C3001202DE026B1FFF79B
:1009A0007FFDC01BB04219D900232363202284F8A5
:1009B0003D2084F83C3003201EE023685B6925EA73
:1009C00003039BB2003318BF0123A3B123685A6904
:1009D00012F4806FCFD1B6F1FF3FDFD1C5F30743EB
:1009E000012BEAD023689B6925EA03039BB20033FD
:1009F00018BF0123E9E70020F8BD0000F0B583B07F
:100A000004460D4616461F46C36A042B0DD0012B23
:100A10000BD013F5803F08D0036B122B0AD102686C
:100A2000136843F48073136004E02268136843F48E
:100A3000807313600097334600224FF00111204667
:100A4000FFF761FF58BB2369B3F5804F10D12368CE
:100A500005F0FE051D613B46324615492046FFF76D
:100A600084FF0346E0B1236C042B1ED1012317E061
:100A7000EB11226803F0060343F0F00313613B46D9
:100A800032460C492046FFF770FF20B1236C042B3F
:100A900009D1012304E02368EDB21D61DBE70323E4
:100AA000184603B0F0BD0323FAE70323F8E700BFBD
:100AB00002000100080001002DE9F04184B0044665
:100AC0000D4616461F46C36A042B12D0012B10D0C8
:100AD00013F5803F0DD0036B112B14D102681368FE
:100AE00043F4806313600268136843F480731360F7
:100AF00009E02268136843F4806313602268136876
:100B000043F4807313600097334600224FF00111C5
:100B10002046FFF7F8FE002852D12369B3F5804F35
:100B200012D1236845F00105EDB21D613B46324606
:100B30002A492046FFF719FF0346002841D0236CBD
:100B4000042B48D101233CE04FEAE51808F00608E1
:100B5000236848F0F0021A613B463246204920469D
:100B6000FFF703FF20B1236C042B2ED1012328E0D3
:100B70002368EDB21D613B46324618492046FFF717
:100B8000F4FE20B1236C042B21D1012319E00022B3
:100B9000039223685969039199690391039919682C
:100BA00041F480711960009733464FF001112046DF
:100BB000FFF7A9FE68B9226848F0F1031361B5E7B1
:100BC0000323184604B0BDE8F0810323F9E70323AB
:100BD000F7E70323F5E70323F3E700BF0200010073
:100BE0000800010070B504460D46164623685B698F
:100BF00013F0800F19D12046FFF770FEB8B9B5F198
:100C0000FF3FF3D025B1FFF74BFC801BA842EDD985
:100C1000236C43F02003236400232363202284F801
:100C20003D2084F83C30032000E0002070BD01200E
:100C3000FCE770B504460D46164623685B6913F061
:100C4000040F19D12046FFF749FEB8B9B5F1FF3FAF
:100C5000F3D025B1FFF724FC801BA842EDD9236C0B
:100C600043F02003236400232363202284F83D20E3
:100C700084F83C30032000E0002070BD0120FCE738
:100C800070B505460C4616462B685A6912F0400F9F
:100C900022D15A6912F0100F11D124B1FFF700FCD4
:100CA000801BA042F0D92B6C43F020032B6420233F
:100CB00085F83D30002385F83C30032070BD6FF08F
:100CC00010025A6100232B642B63202285F83D20FB
:100CD00085F83C300120F1E70020EFE7002800F024
:100CE000EB8010B504460368744A93420CD002F5B9
:100CF0008062934208D002F58062934204D040F2B1
:100D000065116F4801F0ACF96368013B6D4A93428D
:100D100067D8A36813B1B3F5804F68D1E36823F4B3
:100D20007F7323F00303002B67D12369B3F5804F52
:100D300002D0B3F5404F66D16369012B69D8A3692E
:100D400033F0FE036BD1E3690BB1402B6DD1236A05
:100D50000BB1802B6FD194F83D30002B71D0242340
:100D600084F83D302268136823F00103136000F01B
:100D700029FE554BA3FB00239B0C2268536061683E
:100D8000524A914263D801332268136263684F4A22
:100D9000934266D85B00B0FBF3F0C0F30B03032B68
:100DA00000D804202368D861E369216A22680B43D4
:100DB00013602369E16822680B4393606369A1694A
:100DC00022680B43D3602268136843F00103136069
:100DD00000202064202384F83D30206384F83E0006
:100DE00010BD4FF4B371364801F03AF991E740F283
:100DF0006711334801F034F990E74FF4B47130488B
:100E000001F02EF991E740F269112D4801F028F91F
:100E100092E74FF4B5712A4801F022F98FE740F2CA
:100E20006B11274801F01CF98DE74FF4B671244887
:100E300001F016F98BE740F26D11214801F010F92D
:100E400089E784F83C30204601F072FE87E74FF4D2
:100E5000967202FB03F31E4AA2FB03239B09013394
:100E600092E7A16889B903EB4302B0FBF2F2C2F347
:100E70000B02B2FA82F25209E2B991B903EB4303D1
:100E8000B0FBF3F040F400408CE703EB830202EB8D
:100E90008202B0FBF2F2C2F30B02B2FA82F2520902
:100EA000EAE703EB830303EB8303B0FBF3F040F4C7
:100EB000404077E7012075E701207047005400406B
:100EC000183700087F1A060083DE1B43A086010046
:100ED000D34D62102DE9F04184B004468846164691
:100EE0001D46FFF7DDFA94F83D30DBB2202B05D02C
:100EF0004FF00208404604B0BDE8F081074600907C
:100F00001923012248492046FFF7FDFC00287FD124
:100F100094F83C30012B7ED0012384F83C302268C9
:100F2000136823F400631360212384F83D301023F9
:100F300084F83E3000232364A3F58033E3623B460C
:100F40000A9A41462046FFF759FD804670B1236C4E
:100F5000042B05D1002384F83C304FF00108C9E789
:100F6000002384F83C304FF00308C3E700230393C9
:100F700023685A6903929B690393039B12E0236CD5
:100F8000042B4BD12268136843F4007313604FF0B5
:100F90000108AFE71D4606463A460A992046FFF784
:100FA00048FEE0B935B33A460A992046FFF71AFEE3
:100FB0000028E4D1701C236832781A616B1E9BB242
:100FC0002268516911F0040FE4D02BB173781361DA
:100FD000023DADB20236DFE71D460646DCE7236C74
:100FE000042B1ED12268136843F4007313604FF082
:100FF00001087FE72268136843F40073136020231D
:1010000084F83D30002384F83E3084F83C3071E7AA
:101010004FF002086EE74FF002086BE74FF003084D
:1010200068E74FF0030865E7020010002DE9F04182
:1010300086B00546884616461C46FFF731FA95F8F5
:101040003D30DBB2202B05D04FF00208404606B001
:10105000BDE8F08107460090192301228A492846FD
:10106000FFF751FC002840F0008195F83C30012B3F
:1010700000F0FE80012385F83C302A68136823F4D1
:1010800000631360222385F83D30102385F83E303D
:1010900000232B64A3F58033EB623B460C9A414658
:1010A0002846FFF709FD804670B12B6C042B05D153
:1010B000002385F83C304FF00108C7E7002385F88E
:1010C0003C304FF00308C1E764B9002302932B685A
:1010D0005A6902929A690292029A1A6842F400725C
:1010E0001A6065E0012C0FD0022C1FD02A6813680B
:1010F00043F480631360002305932B685A690592BB
:101100009B690593059B53E02A68136823F4806369
:101110001360002303932B685A6903929A69039220
:10112000039A1A6842F400721A6041E02A68136850
:1011300023F4806313602A68136843F40063136028
:10114000002304932B685A6904929B690493049BBF
:101150002EE03A460C992846FFF792FD30B92B68ED
:101160001B693370013CA4B2013621E02B6C202BAB
:1011700002D04FF0010869E74FF0030866E70097D7
:101180000C9B002241492846FFF7BDFB002872D185
:101190002A68136843F4007313602B681A69334696
:1011A00003F8022B2A6812697270023CA4B21E4630
:1011B000002C51D0032C2CD8012CCAD0022CDED00C
:1011C00000970C9B002231492846FFF79CFB002822
:1011D00054D12A68136823F4806313602B681B6959
:1011E000337000970C9B002228492846FFF78BFBA1
:1011F000002846D12A68136843F4007313602B68F3
:101200001B6973702B681B69B370033CA4B203366F
:10121000CEE73A460C992846FFF732FD80B92B6895
:101220001B69701C3370631E9BB22A68516911F0F0
:10123000040F0ED013697370023CA4B20236B7E7F4
:101240002B6C202B02D04FF00108FFE64FF0030873
:10125000FCE61C460646ABE7202385F83D3000231C
:1012600085F83E3085F83C30F0E64FF00208EDE6B8
:101270004FF00208EAE64FF00308E7E64FF00308F4
:10128000E4E64FF00308E1E602001000040001006C
:1012900030B583B0044603680F2B29D8236813F0B8
:1012A000010F3DD06368012B01D9052B25D1A34B3C
:1012B0009B6803F00C03042B29D0A04B9B6803F020
:1012C0000C03082B1ED022799D4B1A706368002BEB
:1012D00050D0FFF7E5F80546984B1B6813F4003F24
:1012E0001ED1FFF7DDF8401B6428F5D90320E2E1A9
:1012F000F521944800F0B4FED0E7FA21914800F0BF
:10130000AFFED4E78D4B5B6813F4800FDBD08B4BC3
:101310001B6813F4003F03D06368002B00F0C88102
:10132000236813F0020F5DD0E368012B31D82369E5
:101330001F2B34D8814B9B6813F00C0F3AD07F4B96
:101340009B6803F00C03082B2FD0E368002B74D0AC
:101350007D4B01221A60FFF7A3F80546774B1B6807
:1013600013F0020F5AD1FFF79BF8401B0228F5D962
:101370000320A0E1FFF794F80546704B1B6813F4B7
:10138000003FCDD0FFF78CF8401B6428F5D903202F
:1013900091E14FF496716B4800F062FEC7E740F2AE
:1013A0002D11684800F05CFEC4E7644B5B6813F4E1
:1013B000800FCAD1614B1B6813F0020F04D0E368A1
:1013C000012B01D0012076E15C48036823F0F8038B
:1013D0002169F82292FAA2F2B2FA82F201FA02F23A
:1013E00013430360236813F0080F50D06369012B87
:1013F00035D86369002B38D0544B01221A60FFF7AF
:101400004FF805464D4B5B6F13F0020F3FD1FFF7CE
:1014100047F8401B0228F5D903204CE147480368F0
:1014200023F0F8032169F82292FAA2F2B2FA82F2CA
:1014300001FA02F213430360D4E7434B00221A601F
:10144000FFF72EF805463D4B1B6813F0020FC9D07D
:10145000FFF726F8401B0228F5D903202BE140F2C4
:101460006D11384800F0FCFDC3E7384B00221A60CC
:10147000FFF716F80546314B5B6F13F0020F06D0ED
:10148000FFF70EF8401B0228F5D9032013E123686B
:1014900013F0040F60D0A368012B01D9052B1FD1D5
:1014A00000230193254B1A6C42F080521A641B6C86
:1014B00003F080530193019B254A136843F4807322
:1014C0001360FEF7EDFF0546214B1B6813F4807F88
:1014D0000CD1FEF7E5FF401B0228F5D90320EAE016
:1014E00040F29711174800F0BBFDD9E7227A194B5B
:1014F0001A70A36883B1FEF7D3FF05460F4B1B6F2D
:1015000013F0020F28D1FEF7CBFF401B41F28833C6
:101510009842F3D90320CEE0FEF7C2FF0546074B01
:101520001B6F13F0020F17D0FEF7BAFF401B41F2FA
:1015300088339842F3D90320BDE000BF0038024051
:10154000023802405837000800004742800E4742E8
:101550000070004070380240A369022B38D8A3699C
:10156000002B00F0A780564A926802F00C02082A6D
:1015700000F0A380022B40F08780E36913B1B3F53C
:10158000800F2BD1236A3F2B2ED8636AC03BF02BF0
:1015900030D8A36A022B05D0042B03D0062B01D030
:1015A000082B2DD1E36A043B0B2B2FD8454B00228F
:1015B0001A60FEF775FF0546414B1B6813F0007F6C
:1015C0002AD0FEF76DFF401B0228F5D9032072E0F8
:1015D0004FF4E6713C4800F043FDC0E740F2D511FE
:1015E000394800F03DFDCDE74FF4EB71364800F08F
:1015F00037FDCAE740F2D711334800F031FDC8E7A4
:101600004FF4EC71304800F02BFDCBE740F2D911DC
:101610002D4800F025FDC9E7E369226A1343616A9A
:1016200047F6C07292FAA2F2B2FA82F201FA02F21C
:101630001343A26A5208013A4FF4403191FAA1F1E2
:10164000B1FA81F18A401343E16A4FF0706292FA75
:10165000A2F2B2FA82F201FA02F21343184A53607C
:10166000184B01221A60FEF71BFF0446144B1B683F
:1016700013F0007F06D1FEF713FF001B0228F5D9F7
:10168000032018E0002016E00E4B00221A60FEF73F
:1016900007FF04460A4B1B6813F0007F06D0FEF7D5
:1016A000FFFE001B0228F5D9032004E0002002E021
:1016B000012000E0002003B030BD0120FBE700BFA7
:1016C000003802406000474258370008214B9B68B1
:1016D00003F00C03042B3AD0082B01D01E487047AE
:1016E0001C4B586800F03F005B6813F4800F1ED05D
:1016F0001A4AB2FBF0F2174B586847F6C07318400D
:1017000093FAA3F3B3FA83F3D84000FB02F0114B32
:101710005B6803F440334FF4403292FAA2F2B2FA1B
:1017200082F2D34001335B00B0FBF3F070470A4A0A
:10173000B2FBF0F2074B586847F6C073184093FAB3
:10174000A3F3B3FA83F3D84000FB02F0DFE70348CA
:10175000704700BF003802400024F40000127A00F5
:1017600070B504460D460368013B0E2B11D8072DBA
:1017700015D88C4B1B6803F00F03AB4215D2EBB2AC
:10178000884A1370136803F00F03AB420DD0012099
:1017900070BD40F23721844800F062FCE7E74FF467
:1017A0000E71814800F05CFCE3E7236813F0020F40
:1017B00018D0A3687BB1802B0DD0902B0BD0A02B21
:1017C00009D0B02B07D0C02B05D0D02B03D0E02BF5
:1017D00001D0F02B37D1754A936823F0F003A1684C
:1017E0000B439360236813F0010F73D06368032BDE
:1017F0002FD86368012B32D09A1E012A36D96B4A42
:10180000126812F0020F00F0CA8068498A6822F05C
:10181000030213438B60FEF743FE06466368012B09
:101820002BD0022B38D0032B45D0604B9B6813F094
:101830000C0F4FD0FEF734FE801B41F288339842E4
:10184000F3D90320A4E740F24F21574800F008FCE9
:10185000C1E740F25621544800F002FCC9E7534A60
:10186000126812F4003FD0D1012091E74F4A12686C
:1018700012F0007FC9D101208AE74C4B9B6803F02E
:101880000C03042B26D0FEF70BFE801B41F288339D
:101890009842F2D903207BE7444B9B6803F00C038A
:1018A000082B17D0FEF7FCFD801B41F288339842CD
:1018B000F2D903206CE73D4B9B6803F00C030C2B23
:1018C00008D0FEF7EDFD801B41F288339842F2D933
:1018D00003205DE7334B1B6803F00F03AB4209D9CC
:1018E000EAB2304B1A701B6803F00F03AB4201D011
:1018F00001204DE7236813F0040F14D0E3685BB1B7
:10190000B3F5805F08D0B3F5A05F05D0B3F5C05F35
:1019100002D0B3F5E05F36D1244A936823F4E05354
:10192000E1680B439360236813F0080F15D0236917
:101930005BB1B3F5805F08D0B3F5A05F05D0B3F518
:10194000C05F02D0B3F5E05F23D1184A936823F457
:101950006043216943EAC1039360FFF7B7FE134B6D
:101960009B6803F0F003F02292FAA2F2B2FA82F23C
:10197000D3400F4AD35CD8400E4B18600F20FEF7BF
:1019800057FD002004E74FF42D71074800F068FB75
:10199000C2E740F2BB21044800F062FBD5E701201A
:1019A000F6E600BF003C024058370008003802400D
:1019B000483700080C000020014B1868704700BF32
:1019C0000C00002008B5FFF7F7FF074B9B6803F4F6
:1019D000E0534FF4E05292FAA2F2B2FA82F2D3400C
:1019E000024AD35CD84008BD00380240483700089E
:1019F00008B5FFF7E1FF074B9B6803F460434FF422
:101A0000604292FAA2F2B2FA82F2D340024AD35C66
:101A1000D84008BD00380240483700082DE9F84397
:101A200004464268B44B9A4200F29C80E3681BB1C2
:101A3000B3F5005F40F09C80236933B1B3F5806F4C
:101A400003D0B3F5C06F40F0998063694FF6F3722D
:101A5000134200D123B940F25271A84800F000FBB4
:101A600021680A6922F44052E36813430B6121683C
:101A7000CA6822F4164222F00C02A36820690343CC
:101A800060690343E06903431343CB6021684A69FB
:101A900022F44072A36913434B61E369B3F5004F2D
:101AA00072D02368964A934200F02E8102F580623C
:101AB000934200F02981FFF785FF00EB800000EBE7
:101AC00080006568AD00B0FBF5F58E4FA7FB0535CE
:101AD0006D092E01FFF776FF00EB800000EB800020
:101AE0006568AD00B0FBF5F9FFF76CFF00EB800017
:101AF00000EB80006568AD00B0FBF5F5A7FB053590
:101B00006D094FF0640808FB15952D013235A7FBD0
:101B100005356D0905F0F0053544FFF753FF00EB7F
:101B2000800000EB80006668B600B0FBF6F6FFF7B9
:101B300049FF00EB800000EB800063689B00B0FB76
:101B4000F3F0A7FB0030400908FB10684FEA0818C3
:101B500008F13208A7FB0837C7F3431723682F445F
:101B60009F6027E140F24F71644800F079FA5DE729
:101B70004FF4EA61614800F073FA5DE740F2517199
:101B80005E4800F06DFA60E723685D4A93425BD0DF
:101B900002F58062934257D0FFF714FF00EB8000FC
:101BA00000EB800065686D00B0FBF5F5554FA7FBB5
:101BB00005356D092E01FFF705FF00EB800000EBF6
:101BC000800065686D00B0FBF5F9FFF7FBFE00EBE8
:101BD000800000EB800065686D00B0FBF5F5A7FBA9
:101BE00005356D094FF0640808FB1595ED00323599
:101BF000A7FB05356D096D0005F4F8753544FFF751
:101C0000E1FE00EB800000EB800066687600B0FB30
:101C1000F6F6FFF7D7FE00EB800000EB800063686C
:101C20005B00B0FBF3F3A7FB03235B0908FB13681E
:101C30004FEAC80808F13208A7FB0837C7F3421774
:101C400023682F449F60B5E0FFF7D2FE00EB8000D1
:101C500000EB800065686D00B0FBF5F5294FA7FB30
:101C600005356D092E01FFF7C3FE00EB800000EB88
:101C7000800065686D00B0FBF5F9FFF7B9FE00EB79
:101C8000800000EB800065686D00B0FBF5F5A7FBF8
:101C900005356D094FF0640808FB1595ED003235E8
:101CA000A7FB05356D096D0005F4F8753544FFF7A0
:101CB0009FFE00EB800000EB800066687600B0FBC2
:101CC000F6F6FFF795FE00EB800000EB80006368FE
:101CD0005B00B0FBF3F3A7FB03235B0908FB13686E
:101CE0004FEAC80808F13208A7FB0837C7F34217C4
:101CF00023682F449F605DE0A037A000883700086C
:101D0000001001401F85EB51FFF772FE00EB8000D1
:101D100000EB80006568AD00B0FBF5F5264FA7FB32
:101D200005356D092E01FFF763FE00EB800000EB27
:101D300080006568AD00B0FBF5F9FFF759FE00EBD8
:101D4000800000EB80006568AD00B0FBF5F5A7FBF7
:101D500005356D094FF0640808FB15952D013235E6
:101D6000A7FB05356D0905F0F0053544FFF740FE8A
:101D700000EB800000EB80006668B600B0FBF6F672
:101D8000FFF736FE00EB800000EB800063689B00ED
:101D9000B0FBF3F0A7FB0030400908FB10684FEAE6
:101DA000081808F13208A7FB0837C7F34317236860
:101DB0002F449F60BDE8F8831F85EB512DE9F0416A
:101DC00005460F4616469846069C2B681B6837EA60
:101DD00003030CBF01230023B3421DD1B4F1FF3F25
:101DE000F3D02CB1FEF75CFBA0EB0800A042ECD9CD
:101DF0002A68D36823F4D073D3602A68536923F028
:101E000001035361202385F8393085F83A300023E7
:101E100085F83830032000E00020BDE8F0817047ED
:101E2000002875D010B504468369FBB10368394AB0
:101E300093420BD0A2F54C42934207D002F5504298
:101E4000934203D0FE21344800F00AF9A369F3B1AC
:101E5000B3F5807F1BD0B3F5007F18D0B3F5407F7A
:101E600015D0FF212C4800F0FBF810E00368294A48
:101E700093420CD0A2F54C42934208D002F5504256
:101E8000934204D040F20311234800F0E9F8A3681C
:101E900013B1B3F5805F29D1E36913B1B3F5004FF6
:101EA0002AD194F839306BB3242384F8393022686E
:101EB000D36823F40053D3602046FFF7AFFD2268B8
:101EC000136923F4904313612268536923F02A03B2
:101ED00053612268D36843F40053D3600020E06369
:101EE000202384F8393084F83A3010BD40F20511CF
:101EF000094800F0B5F8CFE74FF48371064800F0C9
:101F0000AFF8CEE784F838302046FFF788FFCBE7FC
:101F10000120704700100140883700082DE9F0418A
:101F200082B01E4690F83930DBB2202B52D10446E5
:101F30000D469046002952D0002A52D090F83830F1
:101F4000012B50D0012380F838300023C3632123B4
:101F500080F83930FEF7A4FA0746A4F82480A4F8E4
:101F6000268010E000963B46002280212046FFF7A5
:101F700025FF002839D12B882268C3F3080353605A
:101F80002369ABB90235E38CA3B1013BE384A368B9
:101F9000B3F5805FE6D000963B46002280212046C4
:101FA000FFF70CFF18BB2A7823685A600135EAE76F
:101FB0000135E8E700963B46002240212046FFF726
:101FC000FDFE0346A8B9202284F83920002284F8B7
:101FD000382000E00223184602B0BDE8F08101235A
:101FE000F9E70123F7E70223F5E70323F3E70323E8
:101FF000F1E70323EFE7FEE708B5034800F052F8E6
:102000000120FFF7F8FF00BFB837000808B5034606
:102010000C4A12685AB10B4A1068033323F00303C9
:102020000344094A934206D8064A136008BD054A8C
:1020300006491160EFE700F0B5FE0C2303604FF096
:10204000FF30F3E77C00002000FC0120500300205B
:1020500001230360014B0B60704700BF04000020A8
:1020600008B50A460146024800F004F8FFF7C4FF2D
:10207000CC3700080FB400B583B004AB53F8042B81
:1020800001938021064800F087FF002803DD014608
:10209000034800F047F803B05DF804EB04B0704764
:1020A0008400002010B5044600F042FF014620469F
:1020B00000F038F80121024800F034F810BD00BFEC
:1020C000A43B00082DE9F04385B004460F46435673
:1020D0000BB10E461EE0042528462146ABBE044641
:1020E000384605B0BDE8F08314F9011B04AA1A4470
:1020F00002F8101C0133AB42F6D304AA13440022A9
:1021000003F8102C4FF00408E94640464946ABBEA0
:102110008046761B002EE3D03546102E28BF1025B2
:102120000023E8E708B5FFF7CDFF08BD08B500F0CC
:1021300093F8024A024B9A6008BD00BF00000008F5
:1021400000ED00E0F8B504460D4617461E46274848
:10215000FFF790FF21682648FFF78CFF616825484C
:10216000FFF788FFA1682448FFF784FFE168234850
:10217000FFF780FF21692248FFF77CFF6169214852
:10218000FFF778FFA1692048FFF774FFE1691F4856
:10219000FFF770FF1E48FFF76DFF29461D48FFF748
:1021A00069FF1D4CE16A1D48FFF764FF216B1C4865
:1021B000FFF760FFE16B1B48FFF75CFF15F0800F36
:1021C0000AD115F4004F0CD11748FFF753FF0699B9
:1021D0001648FFF74FFFF8BD39461548FFF74AFF8D
:1021E000EFE731461348FFF745FFEDE7F837000802
:1021F000083800081838000828380008383800085F
:10220000483800085838000868380008783800084E
:10221000883800089438000800ED00E0A438000871
:10222000B4380008C4380008F4380008FC38000846
:10223000D4380008E438000883691A888A4201D03B
:10224000002070470268033A012A03D802338361F1
:1022500001207047002070470C4B1A6842F00102C1
:102260001A60002199601A6822F0847222F4803288
:102270001A60074A5A601A6822F480221A60D960EC
:10228000044B4FF000629A60704700BF0038024074
:102290001030002400ED00E0224B9B6803F00C039B
:1022A000042B14D0082B16D01BB11F4B1F4A1A60E9
:1022B00002E01D4B1D4A1A601A4B9B68C3F30313BF
:1022C0001B4AD15C184A1368CB4013607047164B09
:1022D000184A1A60F0E7134B5A685B6803F03F0333
:1022E00012F4800F13D0134AB2FBF3F20D4B5B686C
:1022F000C3F3881303FB02F30A4A5268C2F3014294
:1023000001325200B3FBF2F3074A1360D4E7074AE5
:10231000B2FBF3F2034B5B68C3F3881303FB02F3D6
:10232000EAE700BF003802400C0000200024F4005F
:102330004039000800127A0008B5FEF7A9F8044BEE
:102340001B681BB1024A1368013B136008BD00BF44
:102350000401002070B594B000240194204B1A6C45
:1023600042F080521A641B6C03F080530193019B6E
:1023700002941C4B1A6842F440421A601B6803F432
:1023800040430293029B0123089309934FF4800377
:102390000F93082310934FF4A873119304261296F9
:1023A0000723139302250E9508A8FEF771FF0F234C
:1023B0000393049505944FF480530693079429469C
:1023C00003A8FFF7CDF9FFF7F7FA074BA3FB00309F
:1023D0008009FEF7DDF83046FEF7F0F814B070BD66
:1023E0000038024000700040D34D621008B5FEF77F
:1023F00035F8FFF7AFFFFFF74FFF08BD10B50446F4
:10240000054B036000F59A7000F03CFB0023C4F814
:102410009831204610BD00BF343B000800B587B09E
:1024200002220192012302930492039301A903481B
:10243000FEF7E2F807B05DF804FB00BF00080240B9
:1024400000B587B002230193002202920493012376
:10245000039301A90248FEF7CFF807B05DF804FB2B
:102460000008024000B587B0802301930123029346
:1024700002220492039301A90248FEF7BDF807B0B7
:102480005DF804FB00000240012900D9704708B53F
:1024900005D0002202210548FEF704FA08BD0122FA
:1024A00002210248FEF7FEF9F8E700BF00080240EB
:1024B000012900D9704708B505D0002280210548C0
:1024C000FEF7F0F908BD012280210248FEF7EAF983
:1024D000F8E700BF00000240024B1869C0F340005B
:1024E000704700BF0008024008B5C9B2043000F0D0
:1024F0009DFB08BD08B5043000F088FB08BD10B591
:1025000010220271002343718371A224C4710372EB
:1025100042728372C372012904D0022911D00023B0
:10252000037301E002230373002343738373C373B4
:10253000037443748374C3741021FFF7DBFF01201D
:1025400010BD03230373EFE770B510250571002458
:1025500044718471A226C671822606724472847206
:10256000C472017344738473C4730274C2F3072189
:102570004174C2F307418174120EC2742946FFF7F9
:10258000B9FF70BD10B51021017100224271827136
:10259000A224C4718524047242728272C2727F24A2
:1025A000047342738273C273047442748274C2747B
:1025B000FFF7A0FF10BD38B504460021FFF778FFF4
:1025C0000C25257100236371A3710622E271832219
:1025D00022726372A372E37223736373A373E37350
:1025E00001212046FFF764FF0A20FDF75FFF29461F
:1025F0002046FFF77FFF2046FFF76EFF0128FAD045
:102600006FF07B012046FFF76FFF0A20FDF74EFFBA
:1026100094F9083084F8B43094F9093084F8B5306E
:1026200094F90A3084F8B63094F90B3084F8B73056
:1026300094F90C3084F8B83094F90D3084F8B9303E
:1026400094F90F3084F8BB300023772B0ADC03F1B8
:102650000C02224492F90410E21882F8BC100133F3
:102660005BB2F2E738BD000010B5044600F59A7081
:1026700000F00EFA2046FFF79EFF4FF4FA60FDF7D8
:1026800015FF94F9B43013F1560F03D10348FFF747
:10269000F1FC10BD0248FFF7EDFCFEE7603A0008D0
:1026A0006C3A000810B504462046FFF715FF0028D5
:1026B000FAD12046FFF7B2FE00212046FFF7E4FEE4
:1026C00020212046FFF710FF94F9043084F8883069
:1026D00094F9053084F8893094F9063084F88A300A
:1026E00094F9073084F88B30627A237A03EB022363
:1026F000C4F88C3094F90A3084F8903094F90B3097
:1027000084F89130627B237B03EB0223C4F894307E
:10271000627C237C1B0403EB0263E27B03EB02235A
:10272000A27B1344C4F89830627D237D1B0403EB25
:102730000263E27C03EB0223A27C1344C4F89C30C6
:10274000E27DA37D03EB0223C4F8A030627E237EEA
:1027500003EB0223C4F8A430E27EA37E03EB022342
:10276000C4F8A830627F237F03EB0223C4F8AC30A7
:1027700001212046FFF788FE2046FFF761FE10BDCD
:1027800008B5013810280DD8DFE800F0090D111543
:10279000191D2125292D3135393D41454900224852
:1027A000FFF768FC08BD2148FFF764FCFAE7204802
:1027B000FFF760FCF6E71F48FFF75CFCF2E71E48F6
:1027C000FFF758FCEEE71D48FFF754FCEAE71C480A
:1027D000FFF750FCE6E71B48FFF74CFCE2E71A481E
:1027E000FFF748FCDEE71948FFF744FCDAE7184832
:1027F000FFF740FCD6E71748FFF73CFCD2E7164846
:10280000FFF738FCCEE71548FFF734FCCAE7144859
:10281000FFF730FCC6E71348FFF72CFCC2E712486D
:10282000FFF728FCBEE700BF503900085C390008FC
:10283000743900088C39000898390008A839000854
:10284000B4390008C0390008CC390008D83900086C
:10285000EC390008003A0008143A0008283A000849
:10286000383A0008543A00084C3A000830B583B0B2
:10287000044600238DF80730B0F89C30C0F878315A
:102880005BB3D0F87C21934227D0B3F5007F73D897
:102890000122C0F88C2113F0200F4AD1D4F87831EE
:1028A00013F0400F4CD1D4F8783113F0800F4ED193
:1028B000D4F8783113F4807F50D1D4F8783113F400
:1028C000007F52D101220DF1070104F59A7000F04A
:1028D00027F9D4F87831C4F87C31D4F8983058B25C
:1028E00084F88001C3F3033284F88221C3F30042E9
:1028F00084F88421DB0F84F8833100287ED1D4F85A
:10290000A030A3B1D4F89821934240F284801022E1
:102910008DF80720C4F8983101220DF1070104F564
:102920009A7000F0FDF89DF80700FFF729FF03B04B
:1029300030BD07238DF807303A48FFF79BFBADE722
:1029400009238DF807303848FFF794FBABE70623DF
:102950008DF807303548FFF78DFBA9E708238DF880
:1029600007303348FFF786FBA7E70E238DF80730C3
:102970003048FFF77FFBA5E713F4806F1BD1D4F835
:10298000783113F4006F1DD1D4F8783113F4805FDF
:102990001FD1D4F8783113F4005F21D1D4F8783105
:1029A00013F4804F23D101220DF1070104F59A7031
:1029B00000F0B6F88DE70B238DF807301E48FFF7BF
:1029C00059FBDCE70A238DF807301C48FFF752FB60
:1029D000DAE70D238DF807301948FFF74BFBD8E7EE
:1029E0000C238DF807301748FFF744FBD6E70F2379
:1029F0008DF807301448FFF73DFBD4E7C0B202ADB5
:102A000005F8010DFFF7BCFE0122294604F59A7076
:102A100000F086F873E79342BFF47CAF11228DF883
:102A2000072077E7883A0008943A0008A03A00089F
:102A3000AC3A0008B83A0008C83A0008DC3A000886
:102A4000F03A0008043B0008183B000810B50446A3
:102A5000034B036000F59A7000F00DF8204610BD9E
:102A6000343B000810B50446FFF7F0FF204600F0A5
:102A700096F9204610BD704710B5044600F08FF956
:102A8000204610BD014B0360704700BF6C3B00083F
:102A900070B586B00446002500951C4B1A6C42F4B4
:102AA00000321A641B6C03F400330093009B402334
:102AB00001930223029307230593032304930395B1
:102AC000134E01A93046FDF797FD202301931223F1
:102AD000029301A93046FDF78FFD0E4B63604FF462
:102AE000E133A360E56025616561E5610C23A361C5
:102AF000201DFFF795F918B10748FFF7D3FAFEE755
:102B00000648FFF7CFFA06B070BD00BF003802409C
:102B1000000C0240004400403C3B0008503B0008D1
:102B200008B54FF0FF330430FFF7F8F908BD000097
:102B300030B589B000210191154B1A6B42F00202A9
:102B40001A631A6B02F002020192019A02911A6B47
:102B500042F002021A631B6B03F002030293029B12
:102B60004023039312230493012305930223069326
:102B700004250795074C03A92046FDF73DFD80235A
:102B80000393079503A92046FDF736FD09B030BD34
:102B9000003802400004024000B583B000230193D6
:102BA000144A116C41F400111164126C02F4001209
:102BB0000192019A1048114A02604FF4804202616A
:102BC0000F49416043618260C3610362C3608361F6
:102BD000FEF784F818B10B48FFF764FAFEE70A48DD
:102BE000FFF760FA4FF47A70FDF760FC03B05DF810
:102BF00004FB00BF003802400801002000540040E0
:102C0000801A0600743B0008843B000800B583B0BE
:102C100042F2107300930B46024684210248FEF7ED
:102C200059F903B05DF804FB0801002000B583B03A
:102C300042F2107300930B46024684210248FEF7CD
:102C4000F5F903B05DF804FB0801002010B584B06D
:102C5000FDF704FC00220192134B196B41F00101B6
:102C60001963196B01F00101019101990292196B2D
:102C700041F004011963196B01F0040102910299FA
:102C800003921A6B42F008021A631B6B03F00803ED
:102C90000393039B054C2046FFF7E4FB2046FFF718
:102CA000CFFB04B010BD00BF003802405C01002023
:102CB00008B5FFF7CBFF1D4C00212046FFF7F8FBBE
:102CC000FFF76AFF2046FFF7CFFC1948FFF7D2F95C
:102CD00000212046FFF713FC0A20FDF7E7FB154A09
:102CE00005212046FFF730FC0A20FDF7DFFB2046D8
:102CF000FFF748FC0A20FDF7D9FB6420FDF7D6FB5F
:102D00000D4B5B6913F0400F07D0084C2046FFF7CE
:102D1000C9FC2046FFF7AAFDF7E701212046FFF78F
:102D2000C7FB6420FDF7C2FBEFE700BF5C0100209A
:102D3000943B0008103204000000024038B50446FD
:102D40000D46012805D01CB94FF6FF739D420BD0EC
:102D500038BD4FF6FF739942F5D10748FFF74EFB98
:102D60000648FFF78FFEEEE70448FFF784FE0248AF
:102D7000FFF76CFEECE700BF5C010020F8020020CA
:102D800008B54FF6FF710120FFF7D8FF08BD08B561
:102D90004FF6FF710020FFF7D1FF08BD704700F02C
:102DA00007B80000014B1868704700BF10000020F2
:102DB000024B0146186800F003B800BF1000002065
:102DC00038B50546002945D051F8043C0C1F002BAE
:102DD000B8BFE41800F0EEF81F4A1368104633B984
:102DE000636014602846BDE8384000F0E4B8A342B0
:102DF0000CD921686218934204BF1A685B6863604B
:102E000004BF521822600460ECE713465A680AB106
:102E1000A242FAD919685818A0420BD1206801447F
:102E2000581882421960DDD1106852685A60014416
:102E30001960D7E702D90C232B60D3E7206821184B
:102E40008A4204BF11685268626004BF0918216099
:102E50005C60C7E738BD00BF3C03002070B5CD1CE7
:102E600025F0030508350C2D38BF0C25002D06462E
:102E700001DBA94203D90C233360002070BD00F0B0
:102E800099F8214A1468214691B9204C23681BB94E
:102E9000304600F03DF820602946304600F038F812
:102EA000431C24D10C233360304600F084F8E4E75F
:102EB0000B685B1B18D40B2B0FD90B60CD50CC18B3
:102EC000304600F078F804F10B00231D20F00700D5
:102ED000C31AD3D05A42E250D0E78C424B6816BF97
:102EE000636013600C46EBE70C464968CCE7C41CF2
:102EF00024F00304A04205D0211A304600F008F85F
:102F00000130CFD02560DBE73C03002040030020E8
:102F100038B5064C0023054608462360FFF776F8CF
:102F2000431C02D1236803B12B6038BD4803002045
:102F3000034613F8012B002AFBD1181A01387047F9
:102F400030B5141E05469BB0184605DA8B232B605E
:102F50004FF0FF301BB030BD4FF40273ADF80C30B2
:102F600014BF04F1FF332346029305934FF6FF731A
:102F700000910491ADF80E3002461E9B694628462A
:102F800000F074F8431CBCBF8B232B60002CE1D0F5
:102F9000009B00221A70DDE707B5009313460A462E
:102FA000014603480068FFF7CBFF03B05DF804FB60
:102FB00010000020704770472DE9F0478E689E4250
:102FC00082460C469046994637D88A8912F4906F0B
:102FD00031D0256809696F1A6569022305EB45053B
:102FE00095FBF3F509F101033B449D4238BF1D46B3
:102FF000530530D52946FFF731FF064650B90C235B
:10300000CAF80030A38943F04003A3814FF0FF309A
:10301000BDE8F0873A46216900F0FAFAA38923F463
:10302000906343F08003A381266165613E44ED1BFC
:103030002660A5604E464E4500D94E463246414672
:10304000206800F0F0FAA3689B1BA36023681E446D
:1030500026600020DCE72A4600F0FEFA064600283B
:10306000E2D121695046FFF7ABFEC8E72DE9F04FEA
:103070001D468B891F069DB080460C4616460FD50F
:103080000B696BB94021FFF7E9FE2060206128B988
:103090000C23C8F800304FF0FF30C8E040236361D4
:1030A0000023099320238DF8293030238DF82A300E
:1030B00003954FF0010B37463D4615F8013B0BB128
:1030C000252B3ED1B7EB060A0BD05346324621469C
:1030D0004046FFF771FF013000F0A480099B534484
:1030E00009933B78002B00F09D8000234FF0FF32C6
:1030F000CDE90523049307938DF853301A932F4697
:10310000052217F8011B504800F032FA049BD0B991
:10311000D90644BF20228DF853201A0744BF2B2222
:103120008DF853202A782A2A15D0079A2F46002096
:103130000A25394611F8013B303B092B4DD9B8B16E
:103140000FE02F46B8E7404A801A0BFA00F0184308
:1031500004903D46D3E7039A111D12680391002A9B
:1031600001DB079204E0524243F00203079204930A
:103170003B782E2B0CD17B782A2B33D1039B1A1D45
:103180001B680392002BB8BF4FF0FF330237059343
:103190002E4D39780322284600F0EAF938B1402351
:1031A000401B03FA00F0049B034301370493397872
:1031B00027488DF8281006227E1C00F0D9F9002837
:1031C00038D0244B13BB039B073323F0070308338A
:1031D0000393099B4B4409936DE705FB02320120E1
:1031E0000F46A6E700230137059319460A253846FE
:1031F00010F8012B303A092A03D9002BC8D00591C9
:10320000C6E705FB012101230746F0E703AB009366
:103210002246114B04A94046AFF30080B0F1FF3FB6
:103220008146D6D1A3895B063FF535AF09981DB01D
:10323000BDE8F08F03AB00932246074B04A940463C
:1032400000F082F8EAE700BFA83B0008AE3B0008A8
:10325000B23B000800000000B92F00082DE9F0473C
:1032600091461F468A680B69DDF820809342B8BFFB
:103270001346C9F8003091F8432006460C4612B1B7
:103280000133C9F800302368990642BFD9F80030ED
:103290000233C9F80030256815F0060507D104F19E
:1032A000190AE368D9F800209B1AAB4228DC94F88D
:1032B00043302268003318BF012392062DD404F155
:1032C000430239463046C047013020D02368E568C4
:1032D000D9F8002003F00603042B08BFAD1AA36839
:1032E00022690CBF25EAE57500259342C4BF9B1AED
:1032F000ED184FF000091A344D451AD1002008E0AE
:103300000123524639463046C047013003D14FF0C1
:10331000FF30BDE8F0870135C3E7E1185A1C3020C3
:1033200081F84300224494F8451082F84310023398
:10333000C5E70123224639463046C0470130E6D072
:1033400009F10109D8E700002DE9F04301F1430C30
:103350000C46097E85B06E291746064698460C9A9B
:1033600000F0B38022D8632936D00AD8002900F0B3
:10337000B980582900F0838004F1420584F8421096
:1033800032E0642901D06929F6D120681368050666
:1033900003F104012AD51B681160002B03DA2D22EA
:1033A0005B4284F843206F480A2239E0732900F019
:1033B0009D8008D86F2920D07029DDD1236843F083
:1033C0002003236003E0752917D07829D4D178230E
:1033D00084F84530644855E01368191D1B68116076
:1033E00004F1420584F8423001238CE01B6811602F
:1033F00010F0400F18BF1BB2CFE713682568181DE7
:103400001060280601D51B6802E06806FBD51B8802
:1034100054486F2914BF0A220822002184F843105F
:103420006568A560002DC0F29580216821F0040137
:103430002160002B3DD1002D40F08E806546082A8A
:103440000BD12368DB0708D5236962689A42DEBF87
:10345000302305F8013C05F1FF35ACEB0503236192
:10346000CDF800803B4603AA21463046FFF7F6FE22
:1034700001304DD14FF0FF3005B0BDE8F083394841
:1034800084F84510136821681D1D1B6815600A0625
:103490000BD5CA0744BF41F0200121601BB9226847
:1034A00022F0200222601022B7E74D0648BF9BB2EF
:1034B000EFE76546B3FBF2F102FB1133C35C05F89D
:1034C000013D0B460029F5D1B9E71368256861690C
:1034D000181D106028061B6801D5196002E06A06F5
:1034E000FBD51980002323616546B9E71368191DD0
:1034F00011601D6862680021284600F039F808B1A3
:10350000401B606063682361002384F84330A7E7B1
:1035100023692A4639463046C0470130AAD023687D
:103520009B0713D4E068039B9842B8BF1846A3E7F3
:1035300001234A4639463046C04701309AD001350A
:10354000E368039A9B1AAB42F2DCEBE7002504F137
:103550001909F5E7002BACD1037884F8423004F167
:1035600042056CE7B93B0008CA3B000800000000B8
:1035700001F0FF01102A2BDB10F0070F08D010F824
:10358000013B013A8B422DD010F0070F42B3F6D128
:10359000F0B441EA012141EA014122F007047FF041
:1035A00000070023F0E80256083C85EA010586EA98
:1035B000010685FA47F5A3FA87F586FA47F6A5FAD4
:1035C00087F68EB9EED1F0BC01F0FF0102F00702E0
:1035D00032B110F8013B013A83EA010313B1F8D18B
:1035E0000020704701387047002D06BF354603386C
:1035F000073815F0010F07D1013015F4807F02BFA5
:10360000013015F4C03F0130F0BC0138704700BFF5
:1036100010B5431E0A44914200D110BD11F8014B70
:1036200003F8014FF7E7884210B501EB020307D812
:10363000421E99420AD011F8014B02F8014FF8E7F7
:103640008342F5D98118D21AD34200D110BD13F8A4
:10365000014D01F8014DF7E7F8B5074614460E464F
:1036600021B91146BDE8F840FFF7F8BB22B9FFF7D2
:10367000A7FB25462846F8BD00F014F8A0420FD25B
:1036800021463846FFF7EAFB05460028F2D03146CE
:103690002246FFF7BDFF31463846FFF791FBE9E7C9
:1036A0003546E7E751F8043C181F002BBCBF0B5808
:1036B000C01870472E2E2F73797374656D2F737237
:1036C000632F73746D333266342D68616C2F73749D
:1036D0006D3332663478785F68616C5F636F7274E3
:1036E00065782E63000000002E2E2F7379737465A9
:1036F0006D2F7372632F73746D333266342D68616E
:103700006C2F73746D3332663478785F68616C5FE8
:103710006770696F2E6300002E2E2F7379737465A6
:103720006D2F7372632F73746D333266342D68613D
:103730006C2F73746D3332663478785F68616C5FB8
:103740006932632E630000000000000001020304E0
:1037500001020304060708092E2E2F73797374657E
:103760006D2F7372632F73746D333266342D6861FD
:103770006C2F73746D3332663478785F68616C5F78
:103780007263632E630000002E2E2F7379737465AD
:103790006D2F7372632F73746D333266342D6861CD
:1037A0006C2F73746D3332663478785F68616C5F48
:1037B000756172742E63000061626F727428292C27
:1037C0002065786974696E672E2E2E0061737365AB
:1037D00072745F706172616D2829206661696C6521
:1037E000643A2066696C6520222573222C206C695E
:1037F0006E652025640A0000537461636B20667255
:10380000616D653A0A000000205230203D202025DD
:103810003038580A00000000205231203D20202579
:103820003038580A00000000205232203D20202568
:103830003038580A00000000205233203D20202557
:103840003038580A0000000020523132203D202537
:103850003038580A00000000204C52203D2020251E
:103860003038580A00000000205043203D20202519
:103870003038580A0000000020505352203D2025C7
:103880003038580A000000004653522F4641523A41
:103890000A0000002043465352203D2020253038A6
:1038A000580A00002048465352203D202025303839
:1038B000580A00002044465352203D20202530382D
:1038C000580A00002041465352203D202025303820
:1038D000580A0000204D4D464152203D20253038E9
:1038E000580A00002042464152203D202025303811
:1038F000580A00004D6973630A000000204C522FE3
:103900004558435F52455455524E3D202530385856
:103910000A0000005B486172644661756C745D0A60
:10392000000000005B4275734661756C745D0A00AF
:103930005B55736167654661756C745D0A000000D4
:10394000000000000000000001020304060708094F
:103950004E6F742076616C69640D0A00666C696351
:103960006B206C65667420746F2072696768740DD3
:103970000A000000666C69636B20726967687420D6
:10398000746F206C6566740D0A000000666C6963D4
:103990006B2075700D0A0000666C69636B20646FA4
:1039A000776E0D0A00000000546170206E6F727413
:1039B000680D0A0054617020736F7574680D0A00F9
:1039C00054617020656173740D0A000054617020A9
:1039D000776573740D0A0000446F75626C6520543E
:1039E0006170206E6F7274680D0A0000446F75621A
:1039F0006C652054617020736F7574680D0A000047
:103A0000446F75626C652054617020656173740D3C
:103A10000A000000446F75626C6520546170207765
:103A20006573740D0A0000005461702063656E7444
:103A300065720D0A00000000446F75626C652054C9
:103A400061702063656E7465720D0A00436F756E58
:103A500074657220436C6F636B776973650D0A0040
:103A600056414C494420465721000000494E5641DA
:103A70004C4944204657212048414C542050524F35
:103A80004752414D2100000074617020736F7574BE
:103A9000680D0A0074617020776573740D0A000068
:103AA000746170206E6F7274680D0A00746170200A
:103AB000656173740D0A00007461702063656E7433
:103AC00065720D0A00000000646F75626C652074F9
:103AD000617020736F7574680D0A0000646F756201
:103AE0006C652074617020776573740D0A000000A6
:103AF000646F75626C6520746170206E6F7274689B
:103B00000D0A0000646F75626C6520746170206539
:103B10006173740D0A000000646F75626C65207437
:103B200061702063656E7465720D0A00000000000C
:103B3000000000004D2A0008652A000855617274D3
:103B400020696E6974206661696C6564000000001C
:103B50005561727420696E69742070617373656455
:103B6000000000000000000000000000772A0008AC
:103B7000792A000849324320696E697420666169B8
:103B80006C65640049324320696E6974207061730A
:103B90007365640047657374757265207374617230
:103BA0007465640D0A000000232D302B2000686C22
:103BB0004C00656667454647003031323334353650
:103BC0003738394142434445460030313233343589
:0B3BD0003637383961626364656600B7
:103BDC007856341280000020000000000024F4000D
:103BEC001400002000000000000000000000000095
:103BFC0000000000000000000000000000000000B9
:103C0C0000000000000000000000000000000000A8
:103C1C000000000000000000000000000000000098
:103C2C000000000000000000000000000000000088
:103C3C000000000000000000000000000000000078
:083C4C000000000032547698DC
:040000050800019955
:00000001FF
